:020000040800F2
:1000000070BD002031030008AF5A00080B4C0008F7
:10001000AD5A00084F190008B57200080000000032
:100020000000000000000000000000007102000855
:10003000AB22000800000000CD020008596A000849
:100040004B0300084B0300084B0300084B03000858
:100050004B0300084B0300084B0300084B03000848
:100060004B0300084B0300084B0300084B03000838
:10007000B92100084B0300084B0300084B0300089C
:100080004B0300084B0300084B0300084B03000818
:10009000511900084B0300084B030008F124000825
:1000A0004B0300084B0300084B0300084B030008F8
:1000B0002D6B00084B0300084B0300084B0300089E
:1000C0004B0300084B0300084B0300084B030008D8
:1000D0004B0300084B0300084B0300088171000824
:1000E0004B0300084B0300084B0300084B030008B8
:1000F0004B0300084B0300084B0300084B030008A8
:100100004B0300084B0300084B0300084B03000897
:100110004B0300084B0300084B0300084B03000887
:100120004B030008C52100084B0300084B030008DF
:100130004B0300084B0300084B0300084B03000867
:10014000B11900084B0300084B0300084B030008DB
:100150004B030008D12100084B03000899710008E7
:100160004B0300084B0300084B0300084B03000837
:100170004B0300084B0300084B030008000000007D
:100180004B0300084B03000800F002F800F060F891
:100190000AA090E8000C82448344AAF10107DA45E2
:1001A00001D100F055F8AFF2090EBAE80F0013F0D4
:1001B000010F18BFFB1A43F00103184788B2000073
:1001C000A8B200000A444FF0000C10F8013B13F0F5
:1001D000070408BF10F8014B1D1108BF10F8015BA0
:1001E000641E05D010F8016B641E01F8016BF9D193
:1001F00013F0080F1EBF10F8014BAD1C0C1B09D1EA
:100200006D1E58BF01F801CBFAD505E014F8016B5B
:1002100001F8016B6D1EF9D59142D6D370470000ED
:100220000023002400250026103A28BF78C1FBD8FF
:10023000520728BF30C148BF0B6070471FB50AF096
:10024000C3F99DE8030000F0B9FF1FBD10B510BD54
:1002500001F038F81146FFF7F1FF07F07DFD01F0DE
:1002600056F803B4FFF7F2FF03BC01F08DF800006D
:100270002C4B19680868B0E8F04F80F30988BFF389
:100280006F8F4FF0000080F311887047000000006E
:1002900008480068006880F308884FF0000080F389
:1002A000148862B661B6BFF34F8FBFF36F8F00DF64
:1002B00000BF00BF08ED00E0DFF80C00016841F46A
:1002C00070010160704700BF88ED00E0EFF3098026
:1002D000BFF36F8F134B1A681EF0100F08BF20ED8D
:1002E000108A20E9F04F106009B44FF0500080F3FD
:1002F0001188BFF34F8FBFF36F8F08F01FFC4FF0D3
:10030000000080F3118809BC19680868B0E8F04F54
:100310001EF0100F08BFB0EC108A80F30988BFF3FD
:100320006F8F70470C040020EFF3058070470000CA
:100330000948804709480047FEE7FEE7FEE7FEE779
:10034000FEE7FEE7FEE7FEE7FEE7FEE704480549B5
:10035000054A064B704700001D6B00088901000824
:10036000707D002070BD0020709D0020709D0020D9
:100370009FED1A1AF5EE000A40EE010ABDEEE00A02
:10038000F5EEC00A10EE100AF1EE10FA38BF401E6A
:1003900000EE100A1349F7EE001AB8EEC00A30EE6C
:1003A000C00ADFED0F0A20EE200AFCEEC00A10EEB4
:1003B000900AC0F3080000EE900A01EB8000F8EE0E
:1003C000600A90ED011A70EE600A90ED000A71EE7D
:1003D000E01A21EE800A00EE810A704783F9223E7E
:1003E00000000044F4AB0008B5EEC00AF1EE10FACC
:1003F00007D2DFED1E0AB4EEE00AF1EE10FAA8BF54
:100400007047DFED1B0AB5EEC00A60EE200ABDEEB4
:10041000E01A11EE100AF1EE10FA38BF401E00EE9D
:10042000100A1549F7EE001AB8EEC00A30EEC00AFD
:10043000DFED100A60EE200ABCEEE00A10EE100AB2
:10044000C0F3080000EE100A01EB8000B8EE400A8D
:1004500090ED011A70EEC00A90ED000A71EEE01AFC
:1004600021EE800A00EE810A70470000CD024CB4F4
:1004700083F9223E00000044F4AB000870B4058804
:100480000E884468D1F804C05368B54208D140884A
:100490004988884201BF11888D425188884203D023
:1004A00070BC6FF00200704705FB00F1880827D090
:1004B00094ED001ADCED000A94ED010ADCED011A5E
:1004C00031EE201AD4ED020A70EE211A9CED020AD8
:1004D00083ED001AC3ED011A94ED031ADCED031A43
:1004E00030EE800A401E71EE210A83ED020A04F10B
:1004F0001004C3ED030A03F110030CF1100CD7D163
:1005000011F0030030D0B0F1004F30D200282BDDC5
:10051000211F1B1FACF1040210F0010F0AD091ED56
:10052000010AD2ED010A091D121D30EE200A83EDE9
:10053000010A1B1D400817D091ED010AD2ED010AF6
:10054000401E30EE200A83ED010A91ED020AD2ED41
:10055000020A01F1080102F1080230EE200A83EDDF
:10056000020A03F10803E7D170BC00207047B4EC25
:10057000010A401EFCEC010A30EE200AA3EC010A3D
:10058000F5D1F1E701804280436070472DE9F34FD8
:1005900084B0049840680090486801900498B0F8CE
:1005A00000E04588DFEDFE0A00200290B0EE600A10
:1005B000AE4506D108884988884204BF7146864501
:1005C00004D06FF0020006B0BDE8F08F01985FEA3A
:1005D000010C18BFB7EE001A3DD000BFBEEB0C01F6
:1005E00017D0B1F1004F80F01F82002911DD021FEA
:1005F00011F0010F1CBFC2ED010A121D4B1006D0F5
:10060000C2ED010AC2ED020A08325B1EF8D100EB0E
:100610008100BCF10102A0EC011A19D0B2F1004F27
:1006200080F00882002A13DD031F12F0010F1CBFA7
:10063000C3ED010A1B1D511008D000BFC3ED010A14
:10064000C3ED020A491E03F10803F7D100EB820053
:10065000BCF1010CC2D14FF000080395002D14BF6E
:10066000B0EE602A002000F0BF8100BF009908FBB7
:1006700005F001EB800B0199DBED002A01EB800016
:100680000346F0EE421AC64552D9AEEB0802ABEB78
:10069000850112F0010F17D001EB850191ED000AE1
:1006A000B5EEC00AF1EE10FA07DDB4EEE10AF1EEA4
:1006B00010FA09DDF0EE401A06E0B1EE400AF4EE61
:1006C000C01AF1EE10FAF5D3521031D001EB850CBF
:1006D0009CED000AB5EEC00AF1EE10FA05DDB4EEAD
:1006E000E10AF1EE10FA09DD06E0B1EE400AF4EE9F
:1006F000C01AF1EE10FA01D2F0EE401A01EBC5017A
:1007000091ED000AB5EEC00AF1EE10FA05DDB4EE87
:10071000E10AF1EE10FA09DD06E0B1EE400AF4EE6E
:10072000C01AF1EE10FA01D2F0EE401A521ECDD1ED
:10073000F5EEC01AF1EE10FA00F07381F5EEC02A62
:100740000126F1EE10FA0099D4BFB1EE620AB0EEC4
:10075000620AB4EE610AF1EE10FA1CBFAEEB0802B9
:10076000B2F1010C47D005FB08F201EB820292EDD9
:10077000001A00BFB0EE410A05FB06F4B5EEC00A50
:1007800000EB8404F1EE10FACCBFF0EE400AF1EE7B
:10079000400AF4EE610AF1EE10FA28D1B5EB080C2C
:1007A00011D0BCF1004F7DD2BCF1000F0BDD00BFBA
:1007B00092ED000AD1ED000ABCF1010CE2EC010A55
:1007C000A1EC010AF4D129000ED0B1F1004F6AD298
:1007D000002909DD94ED000AD0ED000A491EE4EC81
:1007E000010AA0EC010AF5D1012002900BE0761C71
:1007F000BCF1010CBED10298012804D0F5EEC02A4C
:10080000F1EE10FA7ED09BED000AB5EB08009A4697
:100810005946064622D0B0F1004F74D200281DDDA3
:10082000091F10F0010F06D0F0EE400A80EEA01A6A
:1008300081ED011A091D401010D000BFD1ED010A51
:10084000401E80EE801A81ED011A91ED021AC1EE70
:10085000000AC1ED020A01F10801EFD1280026D0FB
:10086000B0F1004F7ED2002821DDAAF1040110F082
:10087000010F06D0D1ED010A80EE801A81ED011A38
:10088000091D401013D000BFD1ED010A401E80EEBB
:10089000801A81ED011AD1ED020A80EE801A81EDF5
:1008A000021A01E0CBE0D6E001F10801ECD1DDE96C
:1008B00000124FF000095FEA0E0773D0C14504BF74
:1008C00001EB860102EB850274D091ED000ADC4653
:1008D0005046331E35D01C46B6F1004F7ED2002C58
:1008E0002FDD0B1FABF1040C16F0010F0FD0F0EE53
:1008F000400ADCED011AB0EE601A00EEE11A83ED59
:10090000011A01E08DE0B1E01B1D0CF1040C741024
:1009100015D000BFD3ED010A9CED011A40EE410A4B
:10092000C3ED010AD3ED020A9CED021A0CF1080C8A
:1009300040EE410AC3ED020A0833641EEAD101EB1E
:1009400086012B0036D0B3F1004F72D2002B31DD7F
:10095000A2F1040CAAF1040013F0010F0CD0DCED9D
:10096000010A00E08BE090ED011A001D40EE410A03
:10097000CCED010A0CF1040C5C1019D0DCED010A7D
:1009800090ED011A40EE410ACCED010ADCED020ABD
:1009900090ED021A083040EE410ACCED020A03E065
:1009A000000000000DE005E0641E0CF1080CE5D12C
:1009B00002EB830201EB88017F1E09F101097FF43C
:1009C0007DAF009808F10108001D00900398401EBB
:1009D00003907FF44BAE0299012900E058E004BF78
:1009E00006B0BDE8F08F00BFB5EEC00AF1EE10FA18
:1009F0007FF4E9AD04990EFB05F3002B4A684FF034
:100A000000010BD902EB810C9CED000AB5EEC00A87
:100A1000F1EE10FA02D1491C8B42F3D88B427FF4DD
:100A2000D2AD6FF00400CEE5E0EC010A491EFBD127
:100A3000EFE538E0E0EC010A521EFBD108E692ED4A
:100A4000000AD1ED000ABCF1010CE2EC010AA1ECB4
:100A5000010AF4D1B7E694ED000AD0ED000A491E70
:100A6000E4EC010AA0EC010AF5D1BDE6D1ED000AE3
:100A7000401E80EE801AA1EC011AF7D1EEE6D3ED0C
:100A8000000A401E80EE801AA3EC011AF7D10EE78F
:100A9000BCEC011AD1ED000A5B1E40EE410AE1EC0C
:100AA000010AF5D14DE7B0EC011AD2ED000A5B1E48
:100AB00040EE410AE2EC010AF5D17BE72DE9F04F67
:100AC00082B0466853680193058847884B880020A8
:100AD00000900888874201BFB2F800C0654552887F
:100AE00093421EBF6FF0020002B0BDE8F08F9FED91
:100AF000412A4FEA970EC7F3400B00BFDDE9000221
:100B000002EB800A4A6898464FF00009B0EE420AAC
:100B1000B4465FEA0E0025D092ED001ADCED001A13
:100B200002EB8302DCED010A01EE810A92ED001A6C
:100B300002EB8302401ED2ED001A02EB830200EEAC
:100B4000810A9CED021ADCED030A00040CF1100C82
:100B5000000C01EE210A92ED001A02EB830200EE76
:100B6000810AD9D117F0030026D0ACF10404A2EB1E
:100B7000830210F0010F08D002EB8302D4ED010ACA
:100B800092ED001A241D00EE810A5FEA0B0013D0DB
:100B900002EB830CD4ED010A9CED001A02EBC302B8
:100BA000401E00EE810AD4ED020A92ED001A04F113
:100BB000080400EE810AEBD109F10100AAEC010A58
:100BC0001FFA80F9486800EB8902A8F101001FFABA
:100BD00080F8B8F1000F99D1009806EB8706184409
:100BE00080B20090681E05042D0C87D102B0002051
:100BF000BDE8F08F0000000070B405880E884468DE
:100C0000D1F804C05368B54208D140884988884269
:100C100001BF11888D425188884203D070BC6FF0AB
:100C20000200704705FB00F1880827D094ED001AF8
:100C3000DCED000A94ED010ADCED011A31EE601AD8
:100C4000D4ED020A70EE611A9CED020A83ED001ADF
:100C5000C3ED011A94ED031ADCED031A30EEC00A5D
:100C6000401E71EE610A83ED020A04F11004C3ED27
:100C7000030A03F110030CF1100CD7D111F003009B
:100C800030D0B0F1004F30D200282BDD211F1B1FC8
:100C9000ACF1040210F0010F0AD091ED010AD2ED7F
:100CA000010A091D121D30EE600A83ED010A1B1DA9
:100CB000400817D091ED010AD2ED010A401E30EE36
:100CC000600A83ED010A91ED020AD2ED020A01F1F8
:100CD000080102F1080230EE600A83ED020A03F116
:100CE0000803E7D170BC00207047B4EC010A401E35
:100CF000FCEC010A30EE600AA3EC010AF5D1F1E741
:100D00002DE9F04F02884768B0F802804888D1F892
:100D1000049082B04FF0000A1646824207BF09884D
:100D200088456FF0020002B018BFBDE8F08F4FEAAF
:100D3000980B02EB42000190C8F34000CDF8000090
:100D400009EB8A01BBF1000F33D0019801EB820C53
:100D500001EB80043B46E64601EBC2054FEA0B007F
:100D600093ED000A401E81ED000A93ED010A01EBAC
:100D700002118CED000A93ED020A0CEB021C85EDCA
:100D8000000A93ED030A05EB021584ED000A04EB5B
:100D9000021403F11003E3D10EEB820000EB82009A
:100DA00000EB8201ABF10100504307EB0B1701EBA5
:100DB000001118F0030C21D03B1FA1EB82011CF0A5
:100DC000010F06D093ED010A01EB82011B1D81ED9D
:100DD000000A009880B100BF93ED010A01EB820484
:100DE00001EBC20184ED000A93ED020A401E81ED81
:100DF000000A03F10803EFD107EB8C070AF10100A9
:100E00001FFA80FA701E0604360C99D102B0002039
:100E1000BDE8F08F70B5064600F0B4F9056806F13C
:100E20000B0020F00704B4429CBF002070BD2B468D
:100E30006A68BAB11068A04210D304F10801884270
:100E40003CBF5068586007D3516810194160116861
:100E5000091B016058601460101D70BD1346526874
:100E6000002AE7D12146284600F094F90028DED177
:100E700070BD70B50446051F00F084F90068002CB1
:100E800014BF446870BD002C18BFAC423CBF204664
:100E90006468F8D301680A18AA4218BF456003D1F4
:100EA0002A6805461144016028684119A1421CBF07
:100EB0006C6070BD6168696021680844286070BD1D
:100EC00053EA020C00F069802DE9F04B4FF0000668
:100ED000002B1FBFB3FA83F503FA05F424FA05F6D5
:100EE0005E4012BF1643B2FA82F502FA05F4C5F16C
:100EF00020051EBF22FA05FC44EA0C04203556EA00
:100F0000044C4FEA144418BF641C4FF000084FF023
:100F10000009904271EB030C39D3002919BFB1FAD3
:100F200081F701FA07F6B0FA80F700FA07F6C7F181
:100F300020071EBF20FA07FC46EA0C062037B6FB46
:100F4000F4FCA7EB0507103F07F01F0BCBF12006C1
:100F50000CFA0BFB2CFA06F644BFB3460026202FF2
:100F6000A4BF5E464FF0000B5BEA060C08BF4FF0D3
:100F7000010B19EB0B09ABFB027C48EB0608C01B0D
:100F800006FB02CC0BFB03CC71EB0C01C1E70B465B
:100F9000024641464846BDE8F08B13B54FF00000CD
:100FA0004FF00001AFF30080BDE81C40704710B562
:100FB000431C02E010F8011B71B18107FAD14FF018
:100FC000013202C88C1A8C4314EAC211F9D0C01A3B
:100FD0000A0603D0C01E10BDC01A10BD0A0401D0FD
:100FE000801E10BD0902FCD0401E10BD032A40F235
:100FF000308010F0030C00F0158011F8013BBCF1BB
:10100000020F624498BF11F801CB00F8013B38BFD2
:1010100011F8013BA2F1040298BF00F801CB38BFE0
:1010200000F8013B11F0030300F02580083AC0F0FE
:10103000088051F8043B083A51F804CBA0E80810A6
:10104000F5E7121D5CBF51F8043B40F8043BAFF3D9
:101050000080D20724BF11F8013B11F801CB48BF33
:1010600011F8012B24BF00F8013B00F801CB48BF69
:1010700000F8012B704710B5203AC0F00B80B1E8A2
:101080001850203AA0E81850B1E81850A0E81850BD
:10109000BFF4F5AF5FEA027C24BFB1E81850A0E8C6
:1010A000185044BF18C918C0BDE810405FEA827CE0
:1010B00024BF51F8043B40F8043B08BF7047D207F7
:1010C00028BF31F8023B48BF11F8012B28BF20F898
:1010D000023B48BF00F8012B704702F0FF0343EAD0
:1010E000032242EA024200F002B84FF00002042953
:1010F000C0F0128010F0030C00F01B80CCF1040C47
:10110000BCF1020F18BF00F8012BA8BF20F8022B7A
:10111000A1EB0C0100F00DB85FEAC17C24BF00F820
:10112000012B00F8012B48BF00F8012B70474FF04E
:10113000000200B5134694469646203922BFA0E827
:101140000C50A0E80C50B1F12001BFF4F7AF090733
:1011500028BFA0E80C5048BF0CC05DF804EB890024
:1011600028BF40F8042B08BF704748BF20F8022B67
:1011700011F0804F18BF00F8012B7047704770477F
:101180007047000000487047147D0020704770478A
:101190007047704738B504460A4600206946AFF3E9
:1011A0000080002808BF38BD02460099204600F0A4
:1011B0004FF8012038BD012000F07CB8F8B5AFF33E
:1011C0000080054600200C46102000BF0646A819E6
:1011D000A0420DD9324669460020AFF300800700D7
:1011E00008BF00F067F80098A04218BF0546C41970
:1011F000FFF7C8FF05600746F01D20F007004619FD
:10120000284600F00AF8B44208BFF8BDA21B3146D8
:101210003868BDE8F84000F01BB800210160C0E963
:10122000011070471020704710B500F00DF80068ED
:1012300010BD10B5044600F007F8046010BD0000B2
:10124000004870470C7D0020004870470C7D00204E
:10125000034640688C46002818BF88423CBF0346BE
:101260004068F8D318681844884207D00CF103008E
:1012700020F00700001D411A521A0146081D0A609D
:10128000FFF7F7BD1FB584B000200A9C06AB04AA87
:1012900002A90094AFF3008018B1DDE9020108B0A3
:1012A00010BD0348204000F040F800200146F6E75A
:1012B0000000207C10B500F03FF8BDE8104000F0C1
:1012C0002FB870477546FFF7BBFFAE46050069466D
:1012D000534620F00700854618B020B5FFF736F8D2
:1012E000BDE820404FF000064FF000074FF0000827
:1012F0004FF0000B21F00701AC46ACE8C009ACE8A8
:10130000C009ACE8C009ACE8C0098D46704710B50B
:101310000446AFF300802046BDE81040FEF7A1BFB1
:10132000002801D000F030B8704710B500F04CF83C
:10133000BDE81040FFF7F4BF10B5012805D000212B
:1013400003A000F027F8012010BD09A1F8E7000074
:1013500053494752544D454D3A204F7574206F669E
:101360002068656170206D656D6F72790000000006
:101370003A2048656170206D656D6F727920636FEA
:10138000727275707465640001491820ABBEFEE787
:101390002600020070B505460C460A2000E06D1CD0
:1013A00000F068F835B128780028F8D102E0641C14
:1013B00000F060F814B120780028F8D1BDE8704042
:1013C0000A2000F057B8000010B5022803D04101F0
:1013D00003D50DA112E0002010BD010101D50FA120
:1013E0000CE0C10001D511A108E0810001D512A1D6
:1013F00004E0400001D513A100E0002115A0FFF793
:10140000C9FF012010BD0000496E76616C6964203F
:101410004F7065726174696F6E000000446976698F
:101420006465204279205A65726F00004F766572BC
:10143000666C6F7700000000556E646572666C6FB5
:1014400077000000496E657861637420526573759A
:101450006C7400005349474650453A204172697404
:10146000686D6574696320657863657074696F6E13
:101470003A20000008B569468DF800000320ABBE95
:1014800008BD000001221021014802F00DB8000043
:101490000000024000221021014802F005B80000BF
:1014A000000002402DE9F041FFF7F4FF802000F03A
:1014B000FFF9552000F0FCF9552000F0F9F9FFF78D
:1014C000E1FF962000F0FDFEFFF7E4FF802000F032
:1014D000EFF9552000F0ECF9552000F0E9F9FFF79D
:1014E000D1FF962000F0EDFEFFF7D4FFB6217E205D
:1014F00000F024FAFFF7C6FF502000F0D7FEFFF7F8
:10150000C9FF802000F0D4F9552000F0D1F9552012
:1015100000F0CEF9FFF7B6FF962000F0D2FEFFF7FD
:10152000B9FF802000F0C4F9552000F0C1F9552022
:1015300000F0BEF90446FFF7A5FF962000F0C1FEBB
:101540001E2C02D0FF20BDE8F0810024174FFFF7CA
:10155000A1FF04EB4405EE19785D717800F0EEF917
:10156000FFF790FF962000F0ACFEFFF793FF785D49
:1015700040F0800000F09CF9552000F099F95520CA
:1015800000F096F90546FFF77DFF962000F099FEE2
:101590007078A84204D004EB440038448078D2E745
:1015A000641CE4B2062CD2D30020CCE7A4020020B5
:1015B00001221146014801F077BF000000040240FB
:1015C00000220121014801F06FBF00000004024029
:1015D000F8B500200090FFF7F3FF6946002000F007
:1015E0005BF9FFF7E5FF962000F06BFEFFF7E8FFE1
:1015F0006946002000F050F9FFF7DAFF962000F06E
:1016000060FEFFF7DDFFB621142000F097F9FFF729
:10161000CFFF502000F04AFEFFF7D2FF69460020BE
:1016200000F03AF9FFF7C4FF962000F04AFEFFF7FA
:10163000C7FF6946002000F02FF9FFF7B9FF962099
:1016400000F03FFE9DF800000F2801D0FF20F8BDFC
:101650000024154FFFF7B4FF04EB4405EE19785D45
:10166000717800F06BF9FFF7A3FF962000F029FED8
:10167000FFF7A6FF785D694600F00EF9FFF798FFC7
:10168000962000F01EFE70789DF80010884204D06D
:1016900004EB440038448078F8BD641CE4B2062CA6
:1016A000D8D30020F8BD0000B60200207CB5044667
:1016B000002000900190FFF7EDFE922000F0F8F876
:1016C00006226946122000F0D5F8FFF7DBFE9DF8F0
:1016D00000009DF8011040EA012000B220849DF82E
:1016E00002109DF8032041EA022109B261849DF8AD
:1016F00004209DF8053042EA032212B2A28400EED3
:10170000100A454DF8EEC00A95ED000A60EE800A19
:10171000C4ED010A00EE901AF8EEE00A60EE800ACD
:10172000C4ED020A00EE902AF8EEE00A20EE800AEC
:1017300084ED030AFFF7AEFEA22000F0B9F8022202
:101740006946222000F096F8FFF79CFE9DF8000005
:101750009DF80110C00040EA5110A085B0F5806FDF
:1017600002DBA0F50060A085B4F92C00B4EE001AED
:1017700000EE100AF8EEC00AB3EE070A00EE810A86
:1017800084ED070AFFF71CFF08226946002000F0DD
:1017900071F8FFF70DFF9DF800000F2814D19DF898
:1017A00002009DF8031040EA0120E0849DF8040047
:1017B0009DF8051040EA012020859DF806009DF85F
:1017C000071040EA01206085B4F92600D4ED0C0A28
:1017D00000EE100AB8EEC01A95ED010A50EE010AAB
:1017E000C4ED040AB4F92800D4ED0D0A01EE100A84
:1017F000B8EEC11A50EE010AC4ED050AB4F92A0088
:10180000D4ED0E0A01EE100AB8EEC11A50EE010A2C
:10181000C4ED060A7CBD00009C02002070B50024C7
:10182000FFF740FE40EA0405FFF7D2FE40EA050458
:10183000022000F03BFD002CF2D1BDE870400148D1
:1018400000F002B88C1100209FED070A80ED0C0A11
:101850009FED060A80ED0D0A9FED050A80ED0E0A48
:10186000012101707047000015DF8F3BCEB8C8BB67
:10187000C65A973A70B50D46144640F0800000F005
:1018800017F806E0552000F013F805F8010B641E68
:10189000E4B2002CF6D170BD10B50C4640F08000CB
:1018A00000F006F8552000F003F8207010BD00008D
:1018B00001B582B0002001904FF47A7000900123AE
:1018C00001AA02A9024802F085FA9DF804000EBDA3
:1018D000B818002010B5F0EE400A9FED130A134827
:1018E00006F052F81148124A90ED0A0A10EE101A4A
:1018F000914204DD9FED0F0A80ED0A0A08E0B5EE83
:10190000C00AF1EE10FA03D29FED0B0A80ED0A0A2D
:1019100090ED0A0ABDE81040BCEEC00A10EE100AB5
:1019200080B203F073B900000000204228050020B7
:1019300000409C4600409C460000000010B50C464C
:10194000FFF7B6FF2046BDE81040FFF7B1BFFEE746
:10195000014801F049B800006818002070B505463C
:101960000C46002D1ED0002C1CD00F4A21462846C4
:1019700006F05CF92868A0F58071013912D10B4896
:10198000217881706178C170A178E27842EA012102
:1019900081802179627942EA0121C180A179417077
:1019A000E179017270BD0000280300201C070020AF
:1019B000014801F019B800009018002070B50546E4
:1019C0000C46002D2BD0002C29D0154A2146284644
:1019D00006F02CF9124A21461832284606F026F95C
:1019E0000F4A21463032284606F020F90C4A21469B
:1019F0004832284606F01AF92868B0F5817F0ED1E2
:101A000008482178018061784180E178A27841EA34
:101A1000022181806179227941EA0221C18070BD71
:101A2000C8020020260700202DED028B4FF47A70AB
:101A300006F0C4F9314F324CDFF8C890324DDFF870
:101A4000CCB09FED338ADFF8CCA0334E4FF00008C6
:101A5000388E010A04F81C1F6070788E010AA1708C
:101A6000E070B88E010A21716071F88E010AA171CF
:101A7000E0711C3C224805F0E9FBB9F80000010ABE
:101A800005F81C1F6870B9F80200010AA970E87017
:101A9000B9F80400010A297168719BED050A20EE6E
:101AA000080ABDEEC00A10EE100A000AA87110EE76
:101AB000100AE8711C3D144805F0C8FB174800895E
:101AC000AAF802001649098BAAF80010154A5278A4
:101AD000327786F81D80020AB277F07786F8208088
:101AE00086F82180080A86F8220086F823100A4822
:101AF00005F0ACFB022006F061F9A9E7E401002043
:101B0000280200209402002070020020800400209F
:101B10000000C842440100204C020020871200202F
:101B20006C1200201C07002000B58BB0282101A8F2
:101B3000FFF7FDFA0121099100200790089101901B
:101B4000029003900490069005900A9001A90C4819
:101B500000F03EFE08B100F0CEFC094801F099F912
:101B60000221074800F0A8FD0E200A90054801F068
:101B700090F90221034800F09FFD0BB000BD00006A
:101B800068180020901800202DE9F05F0CAFDDE907
:101B90000AC997E8804CDDF84080054600240E5DB8
:101BA0002E55641CE4B2032CF9D315F8031F62F31D
:101BB000020141F038012970298863F389112980D5
:101BC00069786CF385016970B5F8011069F38E11BD
:101BD000A5F80110698867F3CF116980A9886AF3B5
:101BE0000901A980B5F805106BF38C01A5F8051063
:101BF000E9886EF34F11E98029896FF30901298182
:101C0000B5F809104EF203021140A5F80910A97A9F
:101C100001F01F0169810F30132205490446FFF7C7
:101C2000E5F93A4641462046BDE8F05FFFF7DEB9E8
:101C3000D103002010B50C462DED028B217801292F
:101C400053D1B0F906102D4A00EE101AF3EE051A22
:101C500092ED071AB8EEC00AB0F90400D2ED060AF8
:101C6000434220EE010A20EE218A00EE103AB8EE3F
:101C7000C00A20EE200A00EE218A00EE101AB8EE0B
:101C8000C00A20EE200A00EE900AF8EEE00A20EEEC
:101C9000210A60EE810A00EEA10A6078F1EE080ADE
:101CA00004F1080105F0CEFD6078F1EE080AB0EE0F
:101CB000480A04F10C0105F0C5FD6078012814D133
:101CC0000F4AE0689FED0F0A0F49DFED100A9042BE
:101CD00002DD84ED030A03E0884201D9C4ED030A62
:101CE000A068904204DD84ED020ABDEC028B10BDB9
:101CF0008842FAD9C4ED020AF7E700004C0100203F
:101D000000007A4500007A4500007AC500007AC5D7
:101D10002DED048B00F06EF84FF47A7006F04EF85B
:101D2000314C2C4D2C4FDFED2D9ADFF8B480DFF8CD
:101D3000B4909FED2E8ADFED2E8AB0EE009AA4F1CA
:101D40009806A8782070E878607097ED190A39EE47
:101D5000C00A84ED010A10EE100A404503DD30EEA2
:101D6000480A84ED010A94ED010A10EE100A484574
:101D700003D930EE080A84ED010A94ED010A20EE41
:101D8000090A60EE280A80EE880AFEF72DFB86ED30
:101D9000060A94ED010A20EE090A60EE280A80EE98
:101DA000880AFEF7E5FA86ED070A0F490948FFF7AA
:101DB00041FF0D4806F02AFF0B4800F0FFFB0A48E0
:101DC00006F096FA084800F047F9012005F0F6FF02
:101DD000B7E700001C070020C80200206666084321
:101DE00000003443000034C3E40100200000B44389
:101DF000DB0F494010B5114A0121114803F084FE60
:101E00000E4A0F4818320121503003F07DFE0B4A74
:101E10000B4830320121A03003F076FE074A084813
:101E200048320121F03003F06FFE044ABDE8104053
:101E300060320121034803F067BE00006C010020FE
:101E40003007002070080020F0B52DED0A8B89B016
:101E500020216846FFF76BF99FED6EBBB7EE00AA35
:101E60006E4DD5F8FC0008F0F9FA41EC100B05F0C6
:101E7000A3FCB0EE408AF0EE608AD5F8AC0008F022
:101E8000EDFA41EC100B05F097FCB0EE409AF0EE45
:101E9000609AE86D08F0E2FA41EC100B05F08CFC5A
:101EA000B0EE40CAF0EE60CAE86808F0D7FA41EC3C
:101EB000100B05F081FC53EC1C2B51EC100B07F0C0
:101EC0005BFA53EC192B07F057FA53EC182B07F079
:101ED00053FA41EC180B00249FED51CB6E4653ECA6
:101EE0001B2B51EC180B07F037FD04D0B0EE489ACD
:101EF000F0EE689A03E0B0EE4C9AF0EE6C9A04EBC8
:101F0000840005EB0010C06808F0A8FA53EC192B08
:101F100007F064FB06EBC40203C2641C042CDEDB86
:101F20009FED410B51EC180B53EC102B07F056FBB7
:101F300007F0C0F80AEE900A1AEE900AB0F17E5F40
:101F400002DDF0EE4AAA06E01AEE900A10F1814F87
:101F500001D9FFEE00AA364800893C281FD02D2861
:101F600002D39FED34AA1AE0282802D39FED32AAAB
:101F700015E0232802D39FED31AA10E01E2802D3DA
:101F80009FED2FAA0BE0142802D3B5EE00AA06E0BD
:101F90000A2802D39FED2BAA01E09FED2BAA002473
:101FA0002A489FED2BCB0768384608F057FA41ECDA
:101FB000180B1AEE100A08F051FA41EC190B1AEE40
:101FC000900A08F04BFA41EC1B0B06EBC40053ECF3
:101FD0001C2B90ED000B51EC100B07F09DFD53EC0A
:101FE0001B2B07F099FD53EC192B07F095FD53ECD3
:101FF000182B07F091FD07F05DF804EB840105EB69
:1020000001118862641C042CCEDB09B0BDEC0A8B84
:10201000F0BD0000000000000000000030070020BC
:10202000000000000000F03F000000000094E140CC
:10203000871200209A99593F3333333FCDCC0C3F60
:10204000CDCCCC3ECDCCCC3DCDCC4C3D4C010020BC
:1020500000000000000CEE400178012905D00021AD
:10206000018641868186C18670470F4991ED0A0A33
:10207000BDEEC00A10EE102A028691ED1E0ABDEEDA
:10208000C00A10EE102A428691ED320ABDEEC00A57
:1020900010EE102A828691ED460ABDEEC00A10EEBF
:1020A000101AC186704700003007002010B51E4985
:1020B00000200A78032A00D308701C4CA52104F8DC
:1020C000011C33212180A07004F17F0054F8011C11
:1020D000C0F81610E17881760521163005F0A2FBD4
:1020E00040F20130A0804FF48870E0801048007802
:1020F000208140F48070608100F0EEF834F801290E
:102100000A48921C611D9A30FEF770FF07483C2177
:10211000953005F071FB05493C22BDE81040953132
:10212000044802F019BD000073030020B41200201F
:102130006C120020701A002010B51C4CA52004F869
:10214000010C512020800020A07004F14300A0F178
:102150008001CA6BC0F8162091F8401081760521E5
:10216000163005F05FFB40F20130A0804FF4827022
:10217000E0800F480078208140F48070608100F09A
:1021800059F934F801290948921C611D5E30FEF7A7
:102190002DFF06485A21593005F02EFB03495A22DB
:1021A000BDE810405931034802F0D6BCF0120020BF
:1021B0006C120020701A0020014800F0F7BE0000E9
:1021C000B41A0020014800F0F1BE0000141B0020EA
:1021D000014800F0EBBE0000741B00200168CAB289
:1021E000103A1823B2FBF3F2064B9B5CC3656FF306
:1021F0000901032A02D9091D816500E08165806D0E
:1022000070470000ECAB000810B5014600208A6A58
:102210008B694FF0C074002B0ED0B3F5005F1AD05D
:1022200062B3012A2AD0022A28D0032A03D1C96A1C
:10223000C90100D5012010BD1AB1012A06D0022A19
:10224000F9D1C96AC901F6D5012010BDC96AA142F8
:10225000FBD1012010BD52B1012A0AD0022A06D0BA
:10226000032AF7D1C96AA142F4D1012010BD01208F
:1022700010BDC96AC901FBD5012010BD012010BDE8
:1022800030B50468256825F48025256004686360FE
:102290008368402B04D0036899600068C26030BD39
:1022A00003689A600068C16030BD704770B505462C
:1022B00001F002F9044601F0FFF8001BA842FAD32E
:1022C00070BD70B5054602F093FC044602F090FC28
:1022D000001BA842FAD370BD2DE9F04F87B04D4FD7
:1022E0001E250F263978DFF8309102244FF00108BF
:1022F000002920D001294DD0022919D1474807F1E2
:10230000400A4FF43D7B007A012871D05046FEF719
:102310004EFE02A90023A1E83108CDF818A0CDE9AE
:102320000086FA783EA14846FFF72EFC032038705D
:1023300007B0BDE8F08F3B48DFF8D8A04FF4587BDA
:1023400040780AF1040A012812D05046FEF72FFE09
:1023500002A90023A1E83108CDF818A0CDE9008634
:10236000FA7831A14846FFF70FFC87F80080DFE7D5
:102370002848001DFEF71BFECDE90345CDE905BA4F
:10238000CDE9004602900023FA7827A14846FFF7DE
:10239000FBFBEAE72548DFF87CA040F22A3B4088B7
:1023A0000AF1220A88B15046FEF701FE02A9002375
:1023B000A1E83108CDF818A0CDE90086FA781CA173
:1023C0004846FFF7E1FB3C70B2E712482230FEF7C7
:1023D000EEFDCDE90345CDE905BACDE90046029011
:1023E0000023FA7812A14846FFF7CEFBEBE7FFE7A0
:1023F00008484030FEF7DBFDCDE90345CDE905BADD
:10240000CDE9004602900023FA7805A14846FFF77F
:10241000BBFB8BE773030020C01200201C070020C9
:10242000434C3300E4010020434C310026070020D8
:10243000434C32002DE9F0478AB025482549002653
:10244000B0F906001427244CCD7840F29E284FF0B6
:102450000A094FF0020A3C2825DB303807F024FB3C
:102460009FED1E1B53EC112B07F056FB9FED1D1B20
:1024700053EC112B06F080FF07F0A8FACDF800A06E
:10248000CDE90498CDE90676CDE908070296002348
:102490002A4616A1CDF804A00396204600F044F881
:1024A0000AB0BDE8F087CDE904984FF45270CDE949
:1024B0000807CDE906760420CDE900A00296039630
:1024C00000232A4609A1204600F02EF8E8E7000084
:1024D000260700207303002038130020CDCCCCCC7D
:1024E000CCCC18400000000000008440414C350076
:1024F000202000F0E5BE72B6FEE70000F6EE000A0E
:1025000060EE200A10EE100A0649A1EB600000EE12
:10251000100A20EE801AF7EE080A41EE400A20EE7B
:10252000800A7047865A375F2DE9F04F0DF1300869
:10253000DDE90A7C98E8004F099E00240D5D0555F1
:10254000641CE4B2032CF9D310F8031F62F30201F8
:1025500063F3C5010170018866F389110180417838
:1025600067F385014170B0F801106CF38E11A0F88B
:102570000110418868F3CF114180818869F3090116
:102580008180B0F805106AF38C01A0F80510C188AD
:102590006BF34F11C18001896EF309010181B0F81D
:1025A0000920119961F38C02A0F80920428912993F
:1025B00061F34F124281BDE8F08F000010B5044670
:1025C0003248407807F094FA9FED311B53EC112B01
:1025D00007F0A2FA9FED301B53EC112B06F0CCFE56
:1025E00006F068FD01462E4881602E4A63789FED13
:1025F0002E0AB2F902109FED2D1AF7EE000A13B958
:1026000009B913882BB1C0ED010AC0ED020A29B146
:1026100022E080ED010A80ED021AF8E761780129D5
:102620001AD180ED021AB2F906105A2902DB80EDA8
:10263000010A11E04B2904DB9FED1D0A80ED010A20
:102640000AE0372904DB9FED1B0A80ED010A03E055
:10265000C0ED010AC0ED020A90ED010A90ED021AE8
:1026600020EE010A80ED000A10EE101AB1F1804F41
:1026700004DDB0EE000A80ED000A10BD10EE101A65
:10268000B1F17E5FF9DAC0ED000A10BD6C120020D6
:102690009A9999999999B93F000000C0CCCCEC3F28
:1026A0004C01002026070020CDCCCC3F6666A63F1B
:1026B0003333B33F9A99993F90F82020012A07D0ED
:1026C000022A05D0416A41F480214162012070470D
:1026D000006842690A43426100207047F0B590F8F3
:1026E00020500468A468012D07D0022D05D0416A4E
:1026F00041F4802141620120F0BD04F0806504F0C6
:102700000066354301D1E5005BD5C4F30164022CBA
:1027100005D9416A41F4000141620120F0BD012563
:10272000A5401D608B684FF4C0759BB1CE6805EB6A
:10273000041733434E6843EAC6030668F3514FF467
:10274000C273076803EB04130E69FE50097D01296B
:1027500009D00DE00E88CB6805EB041743EA465319
:102760000668F351EBE70168CE5846F48076CE5008
:102770001179D379567941EA036193791B0443EACD
:10278000062319434FF4C676036806EB04169951E5
:102790001178D37841EA0361937852781B0443EAB5
:1027A000022211434FF4C473026803EB0413D150A7
:1027B000006805EB0411425842F00102425000202B
:1027C000F0BD416A41F4001141620120F0BD0000FA
:1027D00010B590F82020012A07D0022A05D0416ABE
:1027E00041F480214162012010BD3C4800F5007099
:1027F000026842F001020260026822F47C52026028
:1028000002684B6A42EA032202600A7D02F01F035B
:1028100001229A40C3699343C361A0F50070CB695C
:10282000B3B9D0F80C329343C0F80C328C894B68A2
:1028300064F31F434C6900EBC404C4F840320C89B4
:102840000B6864F31F434C6900EBC404C4F84432C2
:10285000CB69012B16D1D0F80C321343C0F80C32DF
:102860000C884B6864F31F434C6900EBC404C4F844
:1028700040320C89CB6864F31F434C6900EBC404FD
:10288000C4F844328B697BB1D0F804321343C0F8EA
:1028900004320B6973B1D0F814321343C0F8143208
:1028A000096A01290CD010E0D0F804329343C0F833
:1028B0000432EEE7D0F814329343C0F81432EFE755
:1028C000D0F81C121143C0F81C12D0F8001221F0ED
:1028D0000101C0F80012002010BD0000006400409B
:1028E000704730B590F82040012C07D0022C05D05D
:1028F000416A41F480214162012030BD21B1046868
:102900002469A4075FD003E00468E468A40754D0F6
:102910004FF4D874056804EB01142D5905F0040533
:102920009560F5B305682D59ED08556005682C597B
:1029300004F00204D4604FF4DA74056804EB011467
:102940002D5905F00F05156105682D59C5F30725AB
:10295000956105682C59240C54614FF4DC720468AD
:1029600002EB0112A4581C700468A458240A5C707D
:102970000468A458240C9C700468A258120EDA70E3
:102980004FF4DE72046802EB0112A4581C71046853
:10299000A458240A5C710468A458240C9C7104682F
:1029A00000E016E0A258120EDA71B9B100680169B0
:1029B00041F020010161002030BD416A41F4001165
:1029C0004162012030BD416A41F4001141620120A1
:1029D00030BD05682D596D0D1560A7E70068C16809
:1029E00041F02001C160E6E72DE9F05F05460024D3
:1029F00028684669D0F804908768D0F80CA0D0F811
:102A000010B0D0F81880F10748D0F90714D0012190
:102A10008160B80703D5284600F068FA0CE0780713
:102A200002D54FF4006407E0380702D54FF4805414
:102A300002E0284600F059FAF80516D529684FF447
:102A400080708860B80503D5284600F051FA0CE084
:102A5000780502D544F4005407E0380502D544F463
:102A6000804402E0284600F042FAF80316D52968AF
:102A70004FF480308860B80303D5284600F03AFA56
:102A80000CE0780302D544F4004407E0380302D593
:102A900044F4803402E0284600F02BFA300707D5D2
:102AA0005FEACA6004D544F4007429681020C86045
:102AB00070074FF0080707D55FEA0A7004D5286849
:102AC000C760284600F0B8F9B00706D52868C06886
:102AD000800702D0284600F0B1F9700607D55FEAFA
:102AE000CB6004D544F48064296810200861B006E6
:102AF00007D55FEA0B7004D528680761284600F007
:102B0000C5F9F00606D528680069800702D0284676
:102B100000F0BDF9B00308D55FEAC96005D52968A2
:102B200010204860284600F0B3F9F00307D55FEAAB
:102B3000097004D528684760284600F0DCF93004A5
:102B400046D55FEA497040D5F00504D55FEAC87004
:102B500001D044F00104B00504D55FEA887001D5C6
:102B600044F00204700504D55FEA487001D544F0D2
:102B70000404300529D518F0700F26D008F0700035
:102B8000402815D006DC102809D020280AD030288B
:102B900016D10AE050280ED0602811D10EE044F082
:102BA00008040DE044F010040AE044F0200407E0BB
:102BB00044F0400404E044F0800401E044F48074F4
:102BC0002868816921F070018161296804204860CA
:102BD000002C05D0686A204368622846FFF780FE13
:102BE000BDE8F09F70B50446002C03D094F8200097
:102BF00010B104E0012070BD204600F09DF820686F
:102C0000016841F00101016000F056FC054605260F
:102C10000CE000F051FC401B0A2807D9606A40F420
:102C20000030606284F82060012070BD2068406838
:102C3000C007EED02068016821F00201016000F0B9
:102C40003BFC05460CE000F037FC401B0A2807D986
:102C5000606A40F40030606284F82060012070BD3A
:102C6000206840688007EED4207E01283FD020688D
:102C7000016821F080010160607E01283DD020685C
:102C8000016821F040010160A07E01283BD020684E
:102C9000016821F020010160E07E012839D0206820
:102CA000016841F010010160207F012837D02068C1
:102CB000016821F008010160607F012835D020689B
:102CC000016821F004010160D4E902010843D4E95C
:102CD0000412114308436168491E08432168C86112
:102CE00000206062012084F82000002070BD206870
:102CF000016841F080010160BEE72068016841F091
:102D000040010160C0E72068016841F020010160D6
:102D1000C2E72068016821F010010160C4E7206863
:102D2000016841F008010160C6E72068016841F0D0
:102D300004010160C8E700002DE9F04186B00446B7
:102D4000142101A8FEF7F3F9364B374ADFF8D0809B
:102D500018682168344C03260227401C10320025D5
:102D60004FF0090C414527D11860012807D11068A0
:102D700040F000701060106800F000700090206853
:102D800040F008002060206800F0080000900196E4
:102D9000029703950496CDF814C001A9234800F0CA
:102DA0009BFA00220521142000F024FC142000F0DE
:102DB00013FC06B0BDE8F081DFF874804145F8D11E
:102DC000116841F080611160116801F0806100912B
:102DD0001860012807D1106840F00070106010687A
:102DE00000F000700090206840F002002060206831
:102DF00000F0020000906020019002970395049675
:102E0000CDF814C001A90B4800F066FA0022052194
:102E1000402000F0EFFB402000F0DEFBC9E700009F
:102E2000006400400404002030380240000C0240DE
:102E300000680040000402407047000070B510496F
:102E4000104C026804F120058A420AD12B46221D4B
:102E50000021FFF746FD2946201DBDE87040FEF722
:102E60007DBD09498A420AD12B46221D0021FFF768
:102E700038FD2946201DBDE87040FEF79FBD70BD9E
:102E800000640040641100200068004070477047F3
:102E9000704770B5044694F82000012805D0606A98
:102EA00040F400206062012070BD022084F8200000
:102EB0002068016821F00101016000F0FDFA05467B
:102EC0000DE000F0F9FA401B0A2808D9606A40F4C6
:102ED00000306062052084F82000012070BD206869
:102EE0004068C007EDD1606270BD704770477047A1
:102EF00070477047704770472DE9F0410446A76D51
:102F000000F0DAFA054694F835000026022806D0CB
:102F10008020606584F834600120BDE8F08120687D
:102F2000016821F0160101602068416921F08001EB
:102F30004161206C08B9A06C20B12068016821F0C3
:102F4000080101602068016821F0010101600BE0C7
:102F500000F0B2FA401B052806D920203434206244
:102F6000032060702670D8E720680068C007EFD1A2
:102F700034343F2094F828108840B86001206070F5
:102F800026700020C9E790F83510022903D080216F
:102F9000416501207047052180F8351000680168FF
:102FA00021F0010101600020704700002DE9F84385
:102FB00004464FF00009CDF800906F484FF41651C9
:102FC0000068B0FBF1F7A56D2E6894F85C0008224C
:102FD00002FA00F1314210D02068016849070CD58F
:102FE000016821F00401016094F85C0002FA00F12C
:102FF000A960606D40F00100606594F85C104FF0CE
:10300000010808FA01F0304208D021684969090630
:1030100004D5A860606D40F00200606594F85C1013
:1030200004208840304208D021680968890704D507
:10303000A860606D40F00400606594F85C1010209A
:103040008840304220D02168096809071CD5A86053
:103050002068016849030CD50068000304D4216C82
:1030600091B1204688470FE0A16C69B1204688479E
:103070000AE00168C90503D4016821F00801016074
:10308000216C09B12046884794F85C1020208840C4
:1030900030424CD021680968C90648D5A86094F828
:1030A000350005280BD020680168490330D5006839
:1030B000000328D4616C51B32046884737E020686C
:1030C000016821F0160101602068416921F080014A
:1030D0004161206C08B9A06C20B12068016821F022
:1030E0000801016094F85C103F208840A86084F8D3
:1030F000358084F83490216D00293BD001B0204602
:10310000BDE8F0430847E16B09B1204688470EE06F
:103110000168C90507D4016821F01001016084F835
:10312000358084F83490E16B09B120468847606DA2
:1031300000281FD0606DC00714D0052084F835002A
:103140002068016821F0010101600098401C009096
:10315000B84203D820680068C007F6D184F83580EB
:1031600084F83490E16C002904D001B02046BDE819
:10317000F0430847BDE8F883080400202DE9F0413A
:10318000044600F099F905465CB1022084F8350048
:10319000002684F834602068016821F00101016094
:1031A0000DE00120BDE8F08100F086F9401B052804
:1031B00005D920206065032084F83500F2E72068F7
:1031C0000068C007F0D121680A6820480240D4E9AD
:1031D00001031843D4E903352B43184363691843AB
:1031E000A3691843E3691843236A18431043626ACA
:1031F000042A03D1D4E90B231A4310430860206842
:10320000406920F00700656A294605430127042923
:103210000DD1A06A0543E06A48B12046FEF7F4FFED
:1032200028B14020606584F835700120BAE7206835
:1032300045612046FEF7D2FF94F85C203F21914083
:103240008160666584F835700020ABE73F8010F040
:103250002DE9F04104460025A66D94F834000128BC
:103260000DD0012084F8340094F835700020012F2F
:1032700007D084F8340002252846BDE8F0810220FA
:10328000FBE7022784F8357060652046FEF7F8FFFB
:1032900094F85C103F208840B0602068016841F0DD
:1032A00016010160206C20B12068016841F008011E
:1032B00001602068016841F001010160DCE77047AE
:1032C00010B504490A68024202D00860FFF7F7FF10
:1032D00010BD0000143C01402DE9F84F0022DFF83A
:1032E0009C914FF0010803274FF00F0C09F1040ADD
:1032F000A9F1040B08FA02F50B682B40AB426ED122
:103300000C7904F00304012C01D0022C15D186683D
:10331000540007FA04FE26EA0E06D1F80CE00EFA75
:1033200004FE4EEA060EC0F808E04468AC430D798E
:10333000C5F300159540254345600C79E443A40787
:1033400008D0C568540007FA04F6B5438E68A64055
:103350002E43C6600C7904F00304022C11D1D4086A
:1033600000EB8406356A5407E40E0CFA04FE25EAE5
:103370000E05D1F810E00EFA04FE4EEA050EC6F86E
:1033800020E00568540007FA04F6B5430E7906F00C
:103390000306A6402E4306604C6814F4403F67D0F5
:1033A000374C256845F480452560246804F4804442
:1033B0000094344C22F003052E19D6F808589407CF
:1033C0004FEA147E0CFA0EF4A5432F4CA04201D113
:1033D000002424E02D4CA04202D101241FE047E04C
:1033E0002B4CA04201D1022419E02A4CA04201D169
:1033F000032414E0284CA04201D104240FE0274C00
:10340000A04201D105240AE0254CA04201D10624A6
:1034100005E0244CA04201D1072400E0082404FA6E
:103420000EF42C43C6F80848D9F800409C434D6878
:10343000ED0200D51C43C9F80040DAF800409C4377
:103440004D68AD0200D51C43CAF80040DBF80040CF
:103450009C434D68AD0300D51C43CBF80040074D9D
:10346000083D2C689C434E68F60300D51C432C6035
:10347000521C102AFFF43EAFBDE8F88F083C014013
:103480004438024000300140000002400004024085
:1034900000080240000C02400010024000140240EC
:1034A00000180240001C0240002A01D081617047D0
:1034B000090481617047000001488068704700007E
:1034C00074040020024881680278114481607047CA
:1034D0007404002010B50B48016841F400710160CC
:1034E000016841F480610160016841F4807101600C
:1034F000032000F09FF80F2000F006F800F050F8CD
:10350000002010BD003C024030B587B005460024C5
:103510001F48016841F001010160006800F00100EE
:10352000009001A902A800F045F90598B0B100F09B
:1035300065F940001749B0FBF1F1491E16484FF0FC
:103540008042026040F2E732C26041600461846000
:10355000846100F0A5FD04461CB115E000F04EF9B1
:10356000E8E70D4800F0F4FD04466CB91C2000F0BB
:1035700033F8102D07D2002229461C2000F03AF81B
:103580000648056000E0012407B0204630BD000079
:103590004038024040420F00D41B00207804002035
:1035A00082B00C48016841F480410160006800F479
:1035B000804001900748001F016841F08051016080
:1035C000006800F08050019000220F21901E02B090
:1035D00000F010B844380240002809DB00F01F0258
:1035E000012191404009800000F1E020C0F8001165
:1035F00070470000F0B40D460D4B1B68C3F3022367
:10360000C3F10704042C00D90424191D072901D291
:10361000002300E0DB1E012606FA04F1491E2940C2
:1036200099409E40761E16403143F0BC03F06ABEBE
:103630000CED00E000F00701054A10684FF6FF03AB
:10364000184040EA01200349084310607047000019
:103650000CED00E00000FA05704700002DE9F0478E
:1036600004460D46002C13D0DFF82891D9F800004D
:10367000EFB200F00700A8420CD289F80070D9F828
:10368000000000F00700A84204D00120BDE8F08748
:103690000120FBE72068404E810712D5400703D583
:1036A000306840F4E05030602078000703D530687F
:1036B00040F4604030603068A16820F0F0000843BA
:1036C00030602078C00731D033496068083901285C
:1036D00008D002280BD0032809D0096889070BD429
:1036E0000120D3E70968890306D40120CEE70968E1
:1036F000890101D40120C9E7316821F003010143A8
:103700003160FFF7D9FE804641F2883A07E0FFF7C3
:10371000D3FEA0EB0800504501D90320B6E730687E
:10372000616800F00C00B0EB810FF0D1D9F8000017
:1037300000F00700A84209D989F80070D9F8000004
:1037400000F00700A84201D001209FE72078400741
:1037500005D53068E16820F4E050084330602078F7
:10376000000706D53068216920F4604040EAC100B6
:10377000306000F063F83168084AC1F30311515C0E
:10378000C8400749086007480068FFF7BDFE0020F1
:103790007CE70000003C024008380240D4AB00083F
:1037A000080400207804002001490120C864704703
:1037B000000047420F2202600B4A136803F0030324
:1037C0004360136803F0F0038360136803F4E0536D
:1037D000C360126802F46042D208026103480068C4
:1037E00000F007000860704708380240003C0240C3
:1037F00001480068704700000804002000B5FFF78A
:10380000F7FF04490968044AC1F38221515CC840AA
:1038100000BD000008380240E4AB000800B5FFF727
:10382000E7FF04490968044AC1F34231515CC840CA
:1038300000BD000008380240E4AB000810B517488E
:10384000006810F00C01164816D0164B042912D04F
:10385000082911D1114C241F216801F03F02216871
:1038600049020AD52068C0F38810A0FB0301002399
:10387000FDF726FB09E0184610BD21680023C1F3BF
:103880008811A1FB0001FDF71BFB2168C1F3014179
:10389000491C4900B0FBF1F010BD0000083802409F
:1038A0000024F400001BB70010B5054800680006AE
:1038B00005D5FFF7D1FE02498020891C087010BD94
:1038C0000C3802402DE9F84F0446002C13D0207824
:1038D000DFF8A083C007A8F1040556D008F1040062
:1038E0000168C1F3810101290CD00068C0F3810097
:1038F000022803D00DE00120BDE8F88FD8F80000C1
:10390000400206D5286880033FD5606870BB01205F
:10391000F2E76068B0F5803F10D0B0F5A02F12D06C
:10392000286820F480302860286820F480202860EF
:103930006068E0B1FFF7C0FD064614E0286840F477
:1039400080302860F4E7286840F4802028602868E8
:1039500040F480302860EBE7FFF7AEFD801B642861
:1039600001D90320C8E728688003F5D50DE0FFF7EB
:10397000A3FD064606E0FFF79FFD801B642801D9E2
:103980000320B9E728688003F5D42078BA4F800770
:103990004FF0000948D5B748001D016811F00C0F21
:1039A00008D00068C0F38100022813D1D8F80000C5
:1039B00040020FD42868800704D5E068012801D0B0
:1039C000012099E72868216920F0F80040EAC10049
:1039D000286029E0E068B8B101203860FFF76CFD8D
:1039E000064606E0FFF768FD801B022801D9032088
:1039F00082E728688007F5D52868216920F0F8005B
:103A000040EAC10028600FE0C7F80090FFF754FDBE
:103A1000064606E0FFF750FD801B022801D903206F
:103A20006AE728688007F5D42078000729D5DFF8F1
:103A300044A2924861690AF1700A89B101210160CA
:103A4000FFF73AFD064606E0FFF736FD801B022829
:103A500001D9032050E7DAF800008007F4D510E020
:103A6000C0F80090FFF728FD064606E0FFF724FDAA
:103A7000801B022801D903203EE7DAF80000800706
:103A8000F4D42078400778D54FF0000A79483C30CC
:103A90000068C0000BD477483C30016841F0805189
:103AA0000160006800F0805000904FF0010ADFF8DC
:103AB000D0B1DBF80000C00514D4DBF8000040F4FE
:103AC0008070CBF80000FFF7F7FC064606E0FFF732
:103AD000F3FC801B022801D903200DE7DBF800006E
:103AE000C005F4D5634EA0686C3601280FD00528B8
:103AF00012D0306820F001003060306820F00400FF
:103B00003060A068F8B1FFF7D7FC834617E0306853
:103B100040F001003060F4E7306840F004003060AD
:103B2000306840F001003060EBE7FFF7C5FCA0EB28
:103B30000B0141F28830814201D90320DCE6306874
:103B40008007F2D510E0FFF7B7FC834609E0FFF7E6
:103B5000B3FCA0EB0B0141F28830814201D9032074
:103B6000CAE630688007F2D4BAF1010F05D14148A6
:103B70003C30016821F080510160A069C0B33D492B
:103B8000091D09684FF0FF36C1F38101022946D0B3
:103B9000022805D0C7F86090FFF78EFC04463AE093
:103BA000C7F86090FFF788FC814607E0FFF784FCC8
:103BB000A0EB0900022801D903209DE628688001B6
:103BC000F4D4D4E907010843616AA26A890106EBCB
:103BD000520241EA0241084394F82C1040EA016085
:103BE000C8F8000001203866FFF766FC044607E0CD
:103BF0003DE0FFF761FC001B022801D903207BE6B2
:103C000028688001F5D532E0FFF756FC001B02283A
:103C100001D9032070E628688001F5D427E0012847
:103C200023D0D8F80000E26900F4800191421AD153
:103C3000226A00F03F01914215D147F6C071626AD5
:103C40000140B1EB821F0ED1A26A00F4403106EBB5
:103C50005202B1EB024F06D194F82C1000F07060C4
:103C6000B0EB016F03D0012046E6012044E60020BE
:103C700042E600000438024000004742800E4742FE
:103C80000070004070B50446002C09D0606A002521
:103C900040B125616561A56294F8510040B10CE026
:103CA000012070BD6068B0F5827FF4D0E561F2E775
:103CB00084F85050204600F045F8022084F8510066
:103CC0002068016821F040010160A088218900F48A
:103CD000827001F404410843A18901F400610843A2
:103CE000217C01F002010843217D01F0010108431C
:103CF000218B01F400710843217F01F03801084352
:103D000094F8201001F080010843218D01F4005146
:103D1000084321680860A069042101EA104094F872
:103D2000241001F010010843216848602068C1692F
:103D300021F40061C1616565012084F85100002013
:103D400070BD0000F0B587B00446142102A8FDF74D
:103D5000EEF91C492068884232D100271A480168D0
:103D600041F480510160006800F4805001901648D1
:103D70001438016841F002010160016801F002019C
:103D80000191016841F001010160006800F001004B
:103D900001901820029002260396049703250595AA
:103DA0000524069402A90948FFF796FA802002909C
:103DB000039604970595069402A90548FFF78CFA27
:103DC00007B0F0BD0030014044380240000402401A
:103DD000000002402DE9F84F04460A9E8A469346A9
:103DE0001F4601254FF0000894F8500001280ED01E
:103DF000012084F85000FFF75FFB814694F85100E2
:103E0000616801280DD0B1F5827F07D102E0022060
:103E1000BDE8F88FA16809B9042802D04FF0020864
:103E2000C3E0BAF1000F28D0BBF1000F25D0380055
:103E300023D094F85100042802D0052084F85100C2
:103E400000206065C4F838B0E787A787C4F830A0C1
:103E5000E786A7862064606420680168490603D469
:103E6000016841F040010160E068B0F5006F07D0E3
:103E70006068E8B3012F48D07DE04FF0010894E07E
:103E8000606808B1012F39D1206B21680088C860B3
:103E9000206B801C2063E08E401EE0862EE02068B0
:103EA000816889070DD5E18E59B1012D09D1216BAA
:103EB0000988C160206B801C2063E08E401EE08674
:103EC000002520688168C9070BD0E18F49B1C0681F
:103ED000A16B0880A06B801CA063E08F401EE08770
:103EE0000125FFF7E9FAA0EB0900B04206D300E094
:103EF0000BE0701C02D04FF0030856E0E08E002863
:103F0000CDD1E08F0028CAD13BE0206B216800783A
:103F10000873206B401C2063E08E401EE0862AE080
:103F20002068816889070DD5E18E59B1012D09D12D
:103F3000216B09780173206B401C2063E08E401ECA
:103F4000E086002520688168C9070BD0E18F49B160
:103F5000C068A16B0870A06B401CA063E08F401E7E
:103F6000E0870125FFF7A8FAA0EB0900B04201D3D2
:103F7000701C11D186B1E08E0028D1D1E08F0028CD
:103F8000CED14A463146204602F0BAFC38B14FF055
:103F900001082020606508E04FF0030805E0A068F4
:103FA00018B92068C16880680090012050346070A2
:103FB0000020207040462BE77047704710B590F8FE
:103FC0003C20012A22D0012280F83C20CA6800232C
:103FD0008C6822F4407222434C6822F480622243AF
:103FE0000C6822F4006222430C6922F480522243BE
:103FF0004C6922F400522243C96922F480420A43E8
:1040000001684A6480F83C30002010BD022010BDD9
:1040100070B590F83C20012A31D0012680F83C6030
:10402000022280F83D2002685468936824F07005ED
:104030000C682C435460134C0268A24214D0B2F1B5
:10404000804F11D0104CA2420ED0104CA2420BD087
:104050000F4CA24208D00F4CA24205D00E4CA242F7
:1040600002D00E4CA24204D123F0800349681943C8
:1040700091603C30467000210170002070BD02202C
:1040800070BD000000000140000400400008004036
:10409000000C0040000401400040014000180040B6
:1040A00010B50446002C03D094F83D0010B107E091
:1040B000012010BD002084F83C00204600F016F8D6
:1040C000022084F83D00211D206802F035FD01200A
:1040D0003D3460726070A070E07020716071A071FA
:1040E000E07120722070002010BD000008B500684B
:1040F000134A1449904208D1086840F00100086052
:10410000086800F00100009008BD0F4A90420AD1F3
:104110000C48001F016841F004010160006800F0D4
:104120000400009008BD094A9042FBD1086840F4A1
:1041300000300860086800F40030009008BD0000FE
:1041400000000140443802400008004000440140A3
:1041500090F83D10012901D001207047022180F81C
:104160003D100168CA6842F00102CA600068144943
:10417000884214D0B0F1804F11D0124988420ED03D
:10418000114988420BD01149884208D01049884211
:1041900005D01049884202D00F49884209D1816870
:1041A00001F00701062908D0016841F00101016012
:1041B00003E0016841F00101016000207047000048
:1041C000000001400004004000080040000C0040D6
:1041D00000040140004001400018004070B5044652
:1041E000002594F83C00012817D0012684F83C6093
:1041F000022084F83D002068826822F0770222F4D1
:104200007F4282600868502838D00DDC202853D0C7
:1042100005DC90B3102811D14EE0022070BD30288B
:104220004AD040280AD13DE0602831D070280CD017
:10423000B0F5805F03D0B0F5005F12D001253C34AB
:10424000667000202070284670BDCB68D1E901213E
:10425000206802F0D7FC2068816841F07701816016
:10426000EDE7CB68D1E90121206802F0CBFC2068A2
:10427000816841F480418160E1E71DE0CA684968D6
:10428000206802F0A1FD5021206802F0C5FCD6E7AD
:10429000CA684968206802F0A8FD6021206802F021
:1042A000BBFCCCE7CA684968206802F08DFD40215C
:1042B000206802F0B1FCC2E722680146104602F015
:1042C000ABFCBCE7704770B50446206801694FF04D
:1042D0000005C943890716D4C168C943890712D4A8
:1042E000E91E01610120207720688069800703D0E2
:1042F0002046FFF7E7FF05E0204600F024F92046BE
:1043000000F0DAF9257720680169C943490718D414
:10431000C168C943490714D46FF004010161022048
:1043200020772068806910F4407F03D02046FFF793
:10433000C9FF05E0204600F006F9204600F0BCF970
:10434000257720680169C943090717D4C168C943A3
:10435000090713D46FF00801016104202077206859
:10436000C069800703D02046FFF7ACFF05E0204678
:1043700000F0E9F8204600F09FF9257720680169F0
:10438000C943C90618D4C168C943C90614D46FF01B
:1043900010010161082020772068C06910F4407F77
:1043A00003D02046FFF78EFF05E0204600F0CBF853
:1043B000204600F081F9257720680169C943C907C3
:1043C00008D1C168C943C90704D1891E01612046CB
:1043D00000F073F920680169C943090609D4C1686E
:1043E000C943090605D46FF0800101612046FFF73B
:1043F000E3FD20680169C943490609D4C168C9437E
:10440000490605D46FF040010161204600F05CF9D7
:1044100020680169C94389060BD4C168C94389066C
:1044200007D46FF0200101612046BDE87040FFF71E
:10443000C4BD70BD30B587B00446142102A8FCF796
:1044400076FE254D20680024244902220123A8423B
:1044500014D1086840F010000860086800F01000EF
:1044600001904FF4D4400290039204940594069373
:1044700002A91B48FEF730FF07B030BD194D0324D9
:10448000A84212D1086840F008000860086800F0EF
:104490000800019028140290039204930594069258
:1044A00002A91148FEF718FFE6E7104DA842E3D134
:1044B000086840F020000860086800F020000190C3
:1044C00040200290039204930592069402A90848A2
:1044D000FEF702FFD0E70000000001403038024044
:1044E0000010024000080040000C0240004401405F
:1044F0000014024070B50446002594F83C000128E1
:104500000FD0012084F83C006AB1042A0FD0082A99
:1045100011D00C2A13D00125002084F83C00284635
:1045200070BD022070BD206802F07EFBF4E72068B9
:1045300002F0AEFBF0E7206802F0E4FBECE7206855
:1045400002F018FCE8E7704710B50446002C03D0D1
:1045500094F83D0010B107E0012010BD002084F860
:104560003C00204600F015F8022084F83D00211D93
:10457000206802F0E1FA01203D3460726070A070A2
:10458000E07020716071A071E071207220700020D5
:1045900010BD704770B504460D46002694F83C00E7
:1045A00001280FD0012084F83C006AB1042A1FD0F2
:1045B000082A32D00C2A44D00126002084F83C007E
:1045C000304670BD022070BD2946206802F02CFBE9
:1045D0002068816941F0080181612068816921F0CA
:1045E00004018161206881692A6911438161E4E7DE
:1045F0002946206802F04CFB2068816941F4006183
:1046000081612068816921F480618161206881690C
:104610002A6941EA02218161CFE72946206802F038
:1046200071FB2068C16941F00801C1612068C1695E
:1046300021F00401C1612068C1692A691143C16187
:10464000BBE72946206802F095FB2068C16941F468
:104650000061C1612068C16921F48061C161206885
:10466000C1692A6941EA0221C161A6E710B5044681
:10467000002C03D094F83D0010B107E0012010BDDC
:10468000002084F83C00204600F015F8022084F851
:104690003D00211D206802F04FFA01203D34607278
:1046A0006070A070E07020716071A071E071207284
:1046B0002070002010BD704770470068B0F1804F37
:1046C00001D1FEF7FFBE704770477047704700008A
:1046D000F8B5044622681068D168536900F00F06E7
:1046E000002E08D1850606D58D0604D52046BDE8E6
:1046F000F84002F021BC0025002E66D003F0010630
:1047000001F49077374360D0C20705D0CA0503D5BE
:10471000226C42F001022264420705D5DA0703D079
:10472000226C42F002022264820705D5DA0703D028
:10473000226C42F004022264020707D501F0200235
:10474000324303D0226C42F008022264226C002A19
:1047500031D0800604D5880602D5204602F0ECFB55
:1047600020684069C0F38010216C090700D438B379
:10477000204602F09FFB2068406940061CD5206857
:10478000143050E8001F21F0400140E80012002AD8
:10479000F5D1A06B60B157490165A06BFEF7F3FB43
:1047A000002808D0A06B016D01B0BDE8F0400847BB
:1047B0002046FFF78BFFF8BD2046FFF787FFF8BDC7
:1047C0002046FFF783FF2564F8BD236B012B7ED1C4
:1047D000C3067CD5CB067AD5106850680090506926
:1047E0004FF02003400643D5A16B0868406880B2B3
:1047F0000028E9D0A28D8242E6D9E085C869B0F5EB
:10480000807F2DD020680C3050E8001F21F480718B
:1048100040E80012002AF5D12068143050E8001F4B
:1048200021F0010140E80012002AF5D1206814307F
:1048300050E8001F21F0400140E80012002AF5D1A5
:1048400084F83E30256320680C3050E8001F21F0CA
:10485000100140E80012002AF5D1A06BFEF74CFBD6
:10486000A08DE18D401A81B22046FFF72EFFF8BDE2
:10487000A08DE18D401A81B2E08D0028F7D000298B
:10488000F5D020680C3050E8002F22F4907240E8F8
:104890000026002EF5D12068143050E8002F22F0B9
:1048A000010240E80026002EF5D184F83E30256351
:1048B00020680C3050E8002F22F0100240E800235E
:1048C000002BF5D12046FFF700FFF8BDFFE70206F9
:1048D00006D50A0604D52046BDE8F84002F01ABC09
:1048E0004006F2D54806F0D52046BDE8F84002F073
:1048F00008BB00000F6E000870B50446002C04D001
:1049000094F83D00002510B106E0012070BD84F848
:104910003C50204600F022F8242084F83D00206816
:10492000C16821F40051C160204602F069FB206893
:10493000016921F4904101612068416921F02A0157
:1049400041612068C16841F40051C16025642020A4
:1049500084F83D0084F83E00002070BD2DE9F0434E
:1049600087B00446142102A8FCF7E1FB6F486E4BA8
:1049700021686E4A1438022500264FF003084FF0D4
:104980000709994232D1116841F010011160116894
:1049900001F010010191016841F00201016001681C
:1049A00001F002010191016841F00101016000681C
:1049B00000F0010001908020029003950496CDF84C
:1049C0001480CDF8189002A95948FEF785FC2802FA
:1049D000029003950496CDF81480CDF8189002A9A2
:1049E0005448FEF779FC07B0BDE8F083524B1F1521
:1049F00099423DD14D49091F0A6842F480220A605C
:104A0000096801F480210191016841F0040101600D
:104A1000006800F0040001904FF44060029003959C
:104A20000496CDF81480CDF8189002A94348FEF7FB
:104A300053FC444D4248286078046860AE60EE60E4
:104A40002F616E61AE61C014E8612E626E6228460D
:104A5000FEF794FB08B1FDF74EFDA563AC630022A1
:104A600005212720FEF7C6FD2720FEF7B5FDBAE792
:104A7000354B9942B7D1116841F02001116011689E
:104A800001F020010191016841F0400101600068DE
:104A900000F0400001904FF484400290039504968A
:104AA000CDF814800820069002A92848FEF714FCCF
:104AB000244D2748603528604FF02068C5F80480F1
:104AC000AE60EE602F616E61AE61EE614FF400305A
:104AD00028626E622846FEF751FB08B1FDF70BFD18
:104AE000A563AC631A48174D7830C0352860C5F807
:104AF00004804020A860EE602F616E61AE61EE61BF
:104B0000800228626E622846FEF738FB08B1FDF786
:104B1000F2FC6563AC63002205214720FEF76AFDC5
:104B20004720FEF759FD5EE700100140443802407F
:104B3000000402400000024000480040000802401B
:104B400028600240B41A00200014014000180240FE
:104B50002864024070470000F7B5044694F83D0011
:104B6000202801D00220FEBD019999B392B394F898
:104B70003C00012831D0012084F83C002162A2844D
:104B8000E28400252564212084F83D00636B1448ED
:104B9000D863636B13481864636B1348D864606B05
:104BA000056526681346361D3246606BFEF750FBDE
:104BB00021686FF04000086084F83C502068143091
:104BC00050E8001F41F0800140E80012002AF5D1B2
:104BD0000020FEBDFFE70120FBE70220F9E700000F
:104BE000696E0008AB6E00081F6E000870477047C2
:104BF00010B5FEF761FC4FF08041496A00EB4002BE
:104C0000C2EBC01001EBC00010BDFEE70246002160
:104C1000014802F050BB0000A019002010B5124955
:104C2000124800F039FC11480F49203000F034FCE4
:104C30000E480D49403000F02FFC0C480C4A022170
:104C4000603000F061FF0A4A0848903ABDE8104021
:104C5000A2F190019FED071ADFED070AB2EE040AF8
:104C6000B03001F06DB9000000000020C804002041
:104C70002C010020002474496F12833A2DED048B1F
:104C800084B000200190FFF7C9FF504800F1400AAE
:104C900020309FED4F9AA0F16804039004F12800A2
:104CA00004F1340B04F1F80604F52077DFF82481D1
:104CB0009FED498ADFED498A4FF00509484D029082
:104CC00003F091F801904648FCF7F0FC95ED020ADC
:104CD0003E4800F0FBFB84ED0E0A95ED030A5046BA
:104CE00000F0F4FB84ED0F0A95ED010A039800F043
:104CF000EDFB84ED0D0AD5E905122869C4E90B1214
:104D0000A0623248B0EE490A5A46B030029901F02A
:104D100075F9D7E905123869C4E90812E06196ED22
:104D2000680A20EE080A84ED000A96ED670A20EE74
:104D3000080A84ED030A96ED660A20EE080A84ED5F
:104D4000010AD4ED100A70EE600A10EE900A404598
:104D500005D9B4F84400401CA4F8440009E010EE62
:104D6000900A2049884204DDB4F84400401EA4F8AB
:104D7000440084ED100AB4F9440000EE900AF8EE05
:104D8000E00A00EEA80A84ED020A94ED0A0A20EE79
:104D9000080A84ED040A94ED0B0A20EE080A84ED5B
:104DA000060A94ED0C0A20EE080A84ED050A019823
:104DB000B0FBF9F109FB110018B995ED070AFCF7F2
:104DC00089FD012101A803F001F879E7C80400205A
:104DD0006F12833A000034C3E12E65420000B443F1
:104DE0008C110020000034432DE9F04104460D46AB
:104DF00016461F460420208008206080002D00D029
:104E000017B9FE2084F8C40025716671A7710020CF
:104E10002062012204F12003114604F11800FBF77F
:104E2000B1FB20887843FBF7F5FFE06021887943E8
:104E3000FCF77DF920886843FBF7ECFFC4F8C80055
:104E400021886943FCF773F92179012204F12C00D0
:104E5000D4F8C830FBF796FB20886843FBF7DAFFED
:104E6000C4F8CC0021886943FCF761F9217901225B
:104E700004F13400D4F8CC30FBF784FB208878436D
:104E8000FBF7C8FFC4F8D40021887943FCF74FF939
:104E9000A179012204F14400D4F8D430FBF772FB6D
:104EA000607988B320887043FBF7B4FF20612188C4
:104EB0007143FCF73CF920887043FBF7ABFFC4F863
:104EC000D00021887143FCF732F96179012204F1A5
:104ED0003C00D4F8D030FBF755FB218805FB06F0E9
:104EE00006464843FBF796FF0246C4F8D8002188DF
:104EF00010467143FCF71BF96279217904F14C00EB
:104F0000D4F8D830FBF73EFB208805FB05F670434C
:104F1000FBF780FFC4F8DC0021887143FCF707F938
:104F2000217904F154000A46D4F8DC30FBF72AFB5F
:104F300020887043FBF76EFFC4F8E00021887143BE
:104F4000FCF7F5F8217904F15C000A46D4F8E0306A
:104F5000FBF718FB218807FB05F080464843FBF769
:104F600059FFC4F8E400218801FB08F1FCF7DFF8E1
:104F70002279A17904F16400D4F8E430FBF702FB54
:104F8000208805FB07F800FB08F0FBF743FFC4F897
:104F9000E800218801FB08F1FCF7C9F8A279217922
:104FA00004F16C00D4F8E830FBF7ECFA2088704389
:104FB000FBF730FFC4F8EC0021887143FCF7B7F829
:104FC000217904F174000A46D4F8EC30FBF7DAFAE0
:104FD00020887043FBF71EFFC4F8F000218871435E
:104FE000FCF7A5F8217904F17C000A46D4F8F030EA
:104FF000FBF7C8FA20887043FBF70CFFC4F8F400F5
:1050000021887143FCF793F8217904F184000A4662
:10501000D4F8F430FBF7B6FA20887F437843FBF7E7
:10502000F9FEC4F8F80021887943FCF780F8A179EB
:1050300004F18C000A46D4F8F830FBF7A3FA208874
:1050400000FB08F0FBF7E6FEC4F8FC00218801FB3A
:1050500008F1FCF76CF8A279217904F19400D4F8F6
:10506000FC30FBF78FFA2188207941434843FBF756
:10507000D1FEC4F80001228821794A435143FCF74C
:1050800056F8217904F19C000A46D4F80031FBF768
:1050900079FA2188207941434843FBF7BBFEC4F8E5
:1050A0000401228821794A435143FCF740F82179D1
:1050B00004F1A4000A46D4F80431FBF763FA21880E
:1050C000207941434843FBF7A5FEC4F80801228834
:1050D00021794A435143FCF72AF8217904F1AC00C5
:1050E0000A46D4F80831FBF74DFA20882179484365
:1050F000FBF790FEC4F80C01218822795143FCF79C
:1051000016F82179012204F1B400D4F80C31FBF730
:1051100039FA208821794843FBF77CFEC4F8100156
:10512000218822795143FCF702F82179012204F108
:10513000BC00D4F81031FBF725FA20886843FBF750
:1051400069FEC4F8340121886943BDE8F041FBF7EA
:10515000EEBF2DE9F047044694F81401400756D4F9
:1051600004F16C0104F164000D460746FBF7C8FD2D
:10517000683484F85C0034F8040CA087E08AE08787
:10518000683C04F1A40204F17C01164688463846C6
:10519000FBF794FC6E3484F85600E08EE08720889C
:1051A000A4F840006E3C04F1AC0217462946304694
:1051B000FBF784FC8C3484F83800208820826088D7
:1051C00060828C3C04F19C02914604F18C013846CB
:1051D000FBF754F96E3484F8560039464846FBF71D
:1051E000D5F984F85600E089E08620882087324689
:1051F00029464046FBF762FC84F856006E3C04F1F9
:10520000940239463046FBF759FC84F8C400BDE8E7
:10521000F08710B504462288A079E1684243D4F8AB
:10522000D400FBF728FF2188A0794143E068FBF711
:105230007EFF6079002808D0228821694243D4F893
:10524000D000BDE81040FBF716BF10BD2DE9F041BE
:10525000044694F81401C0062AD434F8940F20822E
:1052600034F82E0C6082943C04F1A402154604F13B
:10527000640104F19400FBF721FC7E3484F84600BD
:10528000E08CE085208820867E3C04F1AC0204F1AD
:105290007C0116460F462846FBF710FC84F8C40034
:1052A00004F1740231463846FBF7A6FC84F8C400CA
:1052B000BDE8F0812DE9F041044694F8140180071F
:1052C0002BD404F15C0104F154000D460746FBF7B2
:1052D00017FD84F8C40004F17C02164604F1740141
:1052E0003846FBF7EBFB683484F85C00A08AA087A3
:1052F00034F80A0CE087683C04F1A40217462946FA
:105300003046FBF7DBFB84F8C400324604F184012D
:105310003846FBF7B3F884F8C400BDE8F08110B557
:1053200004462046FFF775FFD4F8181109B120464E
:105330008847204600F076F8D4F81C1109B12046C1
:1053400088472046FFF7B6FFD4F8201109B1204660
:1053500088472046FFF7FDFED4F8241109B1204606
:105360008847204600F01EF8D4F8281109B12046DD
:1053700088472046FFF76AFFD4F82C1109B1204670
:105380008847D4F8301109B120468847228820790F
:10539000D4F8C8104243D4F83401FBF76CFED4F8BB
:1053A000340110BD2DE9F041044694F814010007C2
:1053B00036D4B4F86400A4F8B4000125A4F8B650BB
:1053C00004F1B40204F1340116460F4604F16400FE
:1053D000FBF774FBA634A07734F8620CE0822583D7
:1053E000A63C04F1BC029046314604F14400FBF7B0
:1053F00003FC943484F83000208820846584943C35
:105400003246414604F19400FBF758FB84F8C4008F
:1054100004F12C0231463846FBF730F884F8C4001A
:10542000BDE8F0812DE9F041044694F81401C0076D
:105430002AD1627904F12C0104F1540004F13405FD
:1054400022B32279A4F8B4200126A4F8B66004F1AE
:10545000B4021746FBF732FB84F8C4002079A4F8A5
:10546000B400A4F8B66004F1BC02164604F13C0195
:1054700004F14C00FBF722FB04F8C40F2A46314626
:105480003846FAF7FBFF2070BDE8F0812A46FBF7AB
:1054900015FB84F8C400F7E791ED000A80ED050ADA
:1054A00091ED010A80ED060A91ED020A80ED070AEE
:1054B0009FED050A80ED010A80ED020A80ED030AE6
:1054C00080ED040A704700000000000080ED010A32
:1054D0000178002907D180ED020A80ED030A80EDF2
:1054E000040A01210170D0ED030AC0ED020A90ED1B
:1054F000041A80ED031AD0ED061A61EEA00AD0ED71
:10550000051A41EE810A90ED071A41EE000AC0ED3E
:10551000040AB0EE600A704710B510480E490160E9
:105520000321416000218160C1604FF410220261BB
:105530004FF4001242610176012242768176C176F3
:1055400001774177FDF74EFB002803D0BDE81040FE
:10555000FCF7D1BF10BD00000064004068180020B7
:1055600010B510480E49016003214160002181609F
:10557000C1604FF4102202614FF4001242610176C3
:10558000012242768176C17601774177FDF72AFBC9
:10559000002803D0BDE81040FCF7ADBF10BD0000EF
:1055A000006800409018002008B51548016841F4D3
:1055B00000110160016801F400110091016841F4DB
:1055C00080010160006800F4800000900022052145
:1055D0000C20FEF70FF80C20FDF7FEFF002205213E
:1055E0003920FEF707F83920FDF7F6FF00220521E4
:1055F0004520FDF7FFFFBDE808404520FDF7ECBF63
:105600003038024010B5A4B01C221C491DA8FBF77D
:1056100032FD00211DA802F0F2FB194C20601C2273
:1056200016491C3116A8FBF726FD002116A802F02A
:10563000E6FB60601C22114938310FA8FBF71BFD07
:1056400000210FA802F0DBFBA0601C220B495431A3
:1056500008A8FBF710FD002108A802F0D0FBE060CD
:105660001C220649703101A8FBF705FD002101A8A5
:1056700002F0C5FB206124B010BD000048AB00085B
:10568000F00300202DE9F04186B0142101A8FBF7BA
:105690004EFD4348016841F002010160016801F0DC
:1056A00002010091016841F040010160016801F0D0
:1056B00040010091016841F008010160016801F0BA
:1056C00008010091016841F004010160016801F0E6
:1056D00004010091016841F001010160016801F0DD
:1056E00001010091016841F080010160016801F051
:1056F00080010091016841F020010160016801F022
:1057000020010091016841F010010160006800F083
:1057100010000090234E4FF4807400222146304642
:10572000FDF7C2FE204F012210213846FDF7BCFED6
:10573000DFF87880012211464046FDF7B5FE01945E
:10574000012402940394049401A93046FDF7C4FD9A
:1057500010200190029403940225049501A9384673
:10576000FDF7BAFD302001904FF40410029003942D
:1057700001A93046FDF7B0FD01940294039404950D
:1057800001A94046FDF7A8FD002205211720FDF7DD
:1057900031FF1720FDF720FF06B0BDE8F0810000C3
:1057A000303802400008024000000240000402407D
:1057B00010B510480E4901604FF48271416000211C
:1057C0008160C16001610122426152028261102246
:1057D000C2610162416281620A21C162FEF752FA2E
:1057E000002803D0BDE81040FCF785BE10BD0000C6
:1057F00000300140B818002010B588B01C2101A865
:10580000FBF795FC154814490160532141600024C1
:10581000846044F61F61C16004618461FEF740FC4E
:1058200008B1FCF768FE0D48FEF720FF08B1FCF751
:1058300062FE60200190029403940594002201A965
:105840000648FEF7A7FE08B1FCF755FE0348FEF731
:10585000F1FD08B010BD000000440140A019002077
:1058600030B595B0002411941294139414940F94AD
:1058700010941C2108A8FBF75AFC20216846FBF76E
:1058800056FC384836490160446084604FF6FF7129
:10589000C160046144618461FEF702FC08B1FCF759
:1058A0002AFE4FF48050119011A92E48FEF796FC65
:1058B00008B1FCF720FE2B48FEF7D8FE08B1FCF734
:1058C0001AFE2848FEF740FE08B1FCF714FE0F94BC
:1058D00010940FA92348FEF79BFB08B1FCF70BFEC1
:1058E0006025089509940A940B940C940D940E94D9
:1058F000002208A91B48FEF74DFE08B1FCF7FBFD8E
:10590000042208A91748FEF745FE08B1FCF7F3FD8D
:105910000894082208A91348FEF7ECFD08B1FCF72B
:10592000EAFD08950C2208A90E48FEF733FE08B1DF
:10593000FCF7E1FD009401940294039404944FF465
:1059400000500590079469460648FEF737FB08B1FA
:10595000FCF7D1FD0348FEF76DFD15B030BD00002A
:10596000000001401019002010B58EB000240A94E8
:105970000B940C940D94089409941C2101A8FBF736
:10598000D6FB1E481C490160A7214160846040F29B
:10599000CF71C16004618461FEF782FB08B1FCF73E
:1059A000AAFD4FF480500A900AA91448FEF716FC8D
:1059B00008B1FCF7A0FD1148FEF758FE08B1FCF74E
:1059C0009AFD0894099408A90C48FEF721FB08B138
:1059D000FCF791FD60200190029403940594082245
:1059E00001A90648FEF7D6FD08B1FCF784FD03487F
:1059F000FEF720FD0EB010BD000800405819002031
:105A000010B50C480A4901604FF4E13141600021B2
:105A10008160C16001610C2242618161C161FEF758
:105A20006BFF002803D0BDE81040FCF764BD10BD3B
:105A300000100140E819002010B50C480A49016027
:105A40000B49416000218160C16001610C2242610B
:105A50008161C161FEF750FF002803D0BDE810400E
:105A6000FCF749BD10BD0000004800402C1A002082
:105A7000A086010010B50C480A4901604FF4E131DD
:105A8000416000218160C16001610C22426181613D
:105A9000C161FEF731FF002803D0BDE81040FCF7DC
:105AA0002ABD10BD00140140701A0020FEE7FDF76A
:105AB000FBFEFEE70021C160016141619FED060A26
:105AC00080ED060A80ED070A80ED080A80ED090ADC
:105AD00080ED0A0A7047000000000000816A21F092
